:020000040800F2
:1000000060510020450100088D0F0008DF0800083E
:10001000890F000853020008DD21000800000000DD
:10002000000000000000000000000000F91E0008B1
:10003000B5040008000000003D100008E51F00089E
:100040005F0100085F0100085F0100085F01000810
:100050005F0100085F0100085F0100085F01000800
:100060005F0100085F0100085F0100085F010008F0
:100070005F0100085F0100085F0100085F010008E0
:100080005F0100085F0100085F0100085F010008D0
:100090005F0100085F0100085F0100085F010008C0
:1000A0005F0100085F0100085F0100085F010008B0
:1000B0005F0100085F0100085F0100085F010008A0
:1000C0005F0100085F0100085F0100085F01000890
:1000D0005F0100085F0100085F0100085F01000880
:1000E0005F0100085F0100085F0100085F01000870
:1000F0005F0100085F0100085F0100085F01000860
:100100005F010008411300085F0100085F0100085B
:100110005F0100085F0100085F0100085F0100083F
:100120005F0100085F0100085F0100085F0100082F
:10013000DFF80CD000F05CF8004800471D490008CB
:10014000605100200648804706480047FEE7FEE76A
:10015000FEE7FEE7FEE7FEE7FEE7FEE7FEE7FEE777
:10016000E91F00083101000840EA01039B0703D0A2
:1001700009E008C9121F08C0042AFAD203E011F8E6
:10018000013B00F8013B521EF9D270472DE9F05FA8
:100190000546002092469B468846064681464024F6
:1001A0001BE0284641464746224600F042F85346A7
:1001B0005A46C01A914110D311461846224600F003
:1001C00029F82D1A67EB01084F462246012000212D
:1001D00000F020F817EB00094E41201EA4F10104A5
:1001E000DFDC484631462A464346BDE8F09F000022
:1001F000064C074D06E0E06840F0010394E8070074
:1002000098471034AC42F6D3FFF796FFCC9F000816
:10021000EC9F0008202A04DB203A00FA02F10020BB
:1002200070479140C2F1200320FA03F31943904034
:100230007047202A04DB203A21FA02F0002170479F
:1002400021FA02F3D040C2F120029140084319463E
:10025000704700BFFEE770B500254FF4803400E022
:10026000641E24B1802001F04BF80028F8D014B9A6
:100270000325284670BD40F2FF5000F0F9FF2846E4
:10028000F8E70000014600BF0748406B00F045005A
:100290000028F9D040F2FF50034A906310464069AD
:1002A00008221040C0B270470080014070B50025A0
:1002B0001048446B01E00F48446B04F045000028EF
:1002C000F9D004F0040028B10325042000F0D0FF89
:1002D000284670BD04F0010028B10125012000F07E
:1002E000C7FF2846F5E740F2FF5000F0C1FF28465F
:1002F000EFE700000080014070B500250B48446B1B
:1003000001E00A48446B04F045000028F9D004F0ED
:10031000040028B10325042000F0AAFF284670BD80
:1003200040F2FF5000F0A4FF2846F8E700800140AB
:100330002DE9F04106460F464FF000082248456B74
:1003400001E02148456B05F045000028F9D005F093
:10035000040038B14FF00308042000F089FF404644
:10036000BDE8F08105F0010030B14FF00108012037
:1003700000F07EFF4046F3E700F0BCFFB04203D040
:100380004FF010084046EBE740F2FF5000F070FFDE
:10039000002000F0C9FF044604F4604018B9200CA6
:1003A00038804046DCE704F4005008B11320D7E75A
:1003B00004F4804008B11020D2E704F4004008B1F2
:1003C0000F20CDE74046CBE70080014070B5002606
:1003D0004FF480350F48446B02E06D1E0D48446BAE
:1003E00004F0450008B9002DF7D115B104F0040060
:1003F00028B10326042000F03BFF304670BD04F016
:10040000400028B10026402000F032FF3046F5E7DA
:100410003046F3E70080014000F0805111B10349FC
:10042000086001E00249486070470000040402408F
:100430000000024021B1026842F00102026004E0C3
:1004400002684FF6FE731A400260704701460020B2
:10045000002201F0805313B1054B1A6801E0054BEF
:100460001A6802EA01030BB1012000E00020704786
:10047000000402400000024010B50022026847F666
:10048000F0739A430C6A8B6823430C6923434C69CD
:1004900023438C692343CC6923434C6A23438C6AEE
:1004A00023431A430260CB6843600B6883604B6848
:1004B000C36010BD7047000051B18200A2F1C0427C
:1004C000126842F001038200A2F1C042136009E009
:1004D0008200A2F1C0421268034B1A408300A3F1CC
:1004E000C0431A6070470000FEFF0F00D0E9011200
:1004F0001143C26811430269114342691143826981
:100500001143C2691143026A1143426A1143826A6C
:100510001143C26A1143026B114302689200A2F1B7
:10052000C0421160816808290BD101688900A1F1DE
:10053000C041096841F0400201688900A1F1C04151
:100540000A60416B0968426B526841EA0211426BD2
:10055000926841EA0221426B928941EA0241426B70
:10056000128A41EA0251426B127D41EA0261426BFA
:10057000926911430268521C9200A2F1C0421160BC
:10058000C16AB1F5804F1BD1816B0968826B5268DB
:1005900041EA0211826B926841EA0221826B128A5F
:1005A00041EA0251826B127D41EA0261826B9269DB
:1005B000114302689200A2F1C042C2F8041107E0A0
:1005C0006FF0704201688900A1F1C041C1F80421B7
:1005D000704700002DE9FC4107460D460026002427
:1005E00000200090019008205D49086010204860BC
:1005F000402088600020C8604FF480600861084691
:1006000000F0D0FE1020FFF73DFE044614B1204656
:10061000BDE8FC8153480088000451490860372038
:100620004860402088600020C8604FF48060086106
:10063000084600F0B7FE3720FFF724FE04460CB151
:100640002046E5E74FF0FF30474908600820486042
:10065000302088600220C8600020086101204861C5
:10066000084600F01DFE00203D4908603320486028
:10067000402088600020C8604FF480600861084610
:1006800000F090FE3320FFF7FDFD04460CB120463C
:10069000BEE70CE04FF4001000F032FE38B100F07D
:1006A0007BFE4DF82600761C012E00D906E02F486F
:1006B000406B40F22A6108400028EBD000BF0820C0
:1006C00000F01EFE28B1082000F0D2FD04242046D0
:1006D0009EE7022000F014FE28B1022000F0C8FDC1
:1006E0000224204694E7202000F00AFE28B12020B2
:1006F00000F0BEFD062420468AE74FF4007000F0AB
:10070000FFFD30B14FF4007000F0B2FD0724204629
:100710007EE740F2FF5000F0ABFD00980006009924
:1007200001F47F4140EA0120009901F47F0140EA91
:100730001120009940EA1160686001980006019953
:1007400001F47F4140EA0120019901F47F0140EA70
:100750001120019940EA11602860204658E7000006
:100760003411002044000020481100200080014086
:1007700008B50121302000F073FC4FF4F850ADF8BB
:10078000000003208DF8020018208DF80300694650
:10079000094800F015F80420ADF800006946074844
:1007A00000F00EF80121880200F04AFC012102202D
:1007B00000F046FC08BD000000100140001401409C
:1007C0002DE9F041024600250026002000230024E8
:1007D000002791F803C00CF00F0591F803C00CF04E
:1007E000100CBCF1000F03D091F802C04CEA0505D3
:1007F00091F800C0BCF1000F31D0146800202BE04C
:100800004FF0010C0CFA00F3B1F800C00CEA03063B
:100810009E4220D183004FF00F0C0CFA03F7BC432B
:1008200005FA03FC4CEA040491F803C0BCF1280F5C
:1008300006D14FF0010C0CFA00FCC2F814C00AE01B
:1008400091F803C0BCF1480F05D14FF0010C0CFA30
:1008500000FCC2F810C0401C0828D1D31460B1F8C5
:1008600000C0BCF1FF0F34DD546800202EE000F121
:10087000080C4FF0010808FA0CF3B1F800C00CEABC
:1008800003069E4221D183004FF00F0C0CFA03F7B0
:10089000BC4305FA03FC4CEA040491F803C0BCF124
:1008A000280F05D100F1080C08FA0CF8C2F81480E2
:1008B00091F803C0BCF1480F07D100F1080C4FF0CC
:1008C000010808FA0CF8C2F81080401C0828CED3A2
:1008D0005460BDE8F081416170470161704700BF1D
:1008E000FEE7000010B504462CB14FF480510548D6
:1008F000FFF7F1FF04E04FF480510248FFF7EDFFEE
:1009000010BD0000001401402DE9F04106460F46DD
:1009100014461D462B4622463946304600F08EF9D5
:1009200004FB05F00249098800F03CF8BDE8F081BD
:100930002600002001B502E00098401E00900098BB
:100940000028F9D108BD00B597B00121080200F0D8
:1009500077FB01200190042003908006079000207F
:1009600002900490059006900890099008200A9043
:1009700010200B9000200C900E900F9010904FF4D0
:1009800080501190002012901390149001A815909F
:10099000169008A8FFF7AAFD01210020FFF78CFDA3
:1009A00017B000BD70B504460D4600262C2000F09F
:1009B000A1FA00BF03E0284600F0A0FA761CA64288
:1009C000F9D370BD08B50121602000F049FB032078
:1009D0008DF8020018208DF803004FF48040ADF828
:1009E000000069465B48FFF7EBFE4FF40040ADF8AE
:1009F000000069465748FFF7E3FE0120ADF800000C
:100A000069465448FFF7DCFE0220ADF80000694655
:100A10005048FFF7D5FE8020ADF8000069464E48EB
:100A2000FFF7CEFE4FF48070ADF8000069464A48EB
:100A3000FFF7C6FE4FF40070ADF800006946464867
:100A4000FFF7BEFE4FF48060ADF8000069464248F3
:100A5000FFF7B6FE4FF40060ADF8000069463E486F
:100A6000FFF7AEFE4FF48050ADF8000069463A48FB
:100A7000FFF7A6FE4FF40050ADF800006946364877
:100A8000FFF79EFE4FF48040ADF800006946324803
:100A9000FFF796FE4FF40040ADF8000069462E487F
:100AA000FFF78EFE4FF48070ADF8000069462948CC
:100AB000FFF786FE4FF40070ADF800006946254848
:100AC000FFF77EFE4FF48060ADF8000069462148D4
:100AD000FFF776FE03208DF8020018208DF8030042
:100AE0001020ADF8000069461A48FFF769FE202083
:100AF000ADF8000069461748FFF762FE8020ADF8A8
:100B0000000069461348FFF75BFE4FF40060ADF844
:100B1000000069460F48FFF753FE10208DF80300D0
:100B200003208DF802000220ADF8000069460A4853
:100B3000FFF746FE10208DF8030003208DF8020019
:100B40004FF48050ADF8000069460248FFF738FEC8
:100B500008BD0000001401400018014010B5044613
:100B6000072C00DD10BD28480470204604EBD0712E
:100B70004910A4EB410139B9F020244908804FF411
:100B8000A0702349088006E04FF4A0701F49088038
:100B9000F0201F490880362000F0ACF9082141EA16
:100BA000441000F0ABF92A2000F0A4F9002000F076
:100BB000A5F9002000F0A2F914490988491EC1F3E3
:100BC000072000F09BF911490978491EC8B200F0CE
:100BD00095F92B2000F08EF9002000F08FF900200D
:100BE00000F08CF90A490988491EC1F3072000F07A
:100BF00085F907490978491EC8B200F07FF92C2011
:100C000000F078F900BFADE71C00002018000020BC
:100C10001A00002010B5FFF7D5FEFFF794FE012063
:100C2000FFF760FE00F052F900F038F80248007853
:100C3000FFF794FF10BD00001C0000202DE9F041DB
:100C400004460D4616461F462A2000F053F920128E
:100C500000F054F9E0B200F051F9A119491EC1F3B6
:100C60000F2000F04BF9A119491EC8B200F046F957
:100C70002B2000F03FF9281200F040F9E8B200F014
:100C80003DF9E919491EC1F30F2000F037F9E919C0
:100C9000491EC8B200F032F9BDE8F08110B5CF208E
:100CA00000F028F9002000F029F9812000F026F951
:100CB000302000F023F9ED2000F01CF9642000F052
:100CC0001DF9032000F01AF9122000F017F9812015
:100CD00000F014F9E82000F00DF9852000F00EF97D
:100CE000102000F00BF9782000F008F9CB2000F07C
:100CF00001F9392000F002F92C2000F0FFF8002063
:100D000000F0FCF8342000F0F9F8022000F0F6F8CA
:100D1000F72000F0EFF8202000F0F0F8EA2000F0D3
:100D2000E9F8002000F0EAF8002000F0E7F8B12030
:100D300000F0E0F8002000F0E1F81B2000F0DEF801
:100D4000B62000F0D7F80A2000F0D8F8A22000F072
:100D5000D5F8C02000F0CEF8352000F0CFF8C12043
:100D600000F0C8F8112000F0C9F8C52000F0C2F862
:100D7000452000F0C3F8452000F0C0F8C72000F07F
:100D8000B9F8A22000F0BAF8F22000F0B3F8002081
:100D900000F0B4F8262000F0ADF8012000F0AEF825
:100DA000E02000F0A7F80F2000F0A8F8262000F0BF
:100DB000A5F8242000F0A2F80B2000F09FF80E20E8
:100DC00000F09CF8092000F099F8542000F096F803
:100DD000A82000F093F8462000F090F80C2000F0D6
:100DE0008DF8172000F08AF8092000F087F80F200E
:100DF00000F084F8072000F081F8002000F07EF871
:100E0000E12000F077F8002000F078F8192000F0D9
:100E100075F81B2000F072F8042000F06FF8102025
:100E200000F06CF8072000F069F82A2000F066F85E
:100E3000472000F063F8392000F060F8032000F04C
:100E40005DF8062000F05AF8062000F057F8302030
:100E500000F054F8382000F051F80F2000F04EF860
:100E6000362000F047F8C82000F048F82A2000F0AB
:100E700041F8002000F042F8002000F03FF8002088
:100E800000F03CF8EF2000F039F82B2000F032F8A9
:100E9000002000F033F8002000F030F8012000F0CE
:100EA0002DF83F2000F02AF83A2000F023F85520D2
:100EB00000F024F8112000F01DF80348FFF73AFD78
:100EC000292000F017F810BDFCBF020010B5022168
:100ED0000748FFF700FD40F6FF20FFF72BFD02213A
:100EE0000348FFF7FAFC40F6FF20FFF723FD10BD93
:100EF000001801404FF0C041088070470149088048
:100F00007047000000000260024A1080024A11800F
:100F100070470000240000202600002001490860DE
:100F2000704700002000002008B50121082000F0D3
:100F300097F82020ADF8000010208DF80300032062
:100F40008DF8020069460F48FFF73AFC0120ADF822
:100F5000000069460B48FFF733FC0220ADF80000A3
:100F600069460848FFF72CFC20210648FFF7B5FC2E
:100F700001210448FFF7B1FC02210248FFF7ADFC54
:100F800008BD0000000C014000BFFEE7704708B537
:100F90004FF4C06000F048F831208DF800000020C8
:100FA0008DF801008DF8020001208DF803006846DD
:100FB00000F002F808BD000070B5002100230F22E8
:100FC000C47804B3154C246804F4E064C4F5E06408
:100FD000210AC1F10403CA40447804FA03F1847879
:100FE0001440214309010E4C0678A155047804F001
:100FF0001F050124AC4005786D11AD0005F1E02519
:10100000C5F8004109E0047804F01F050124AC4054
:10101000044D0678761145F8264070BD0CED00E0D1
:1010200000E400E080E100E002490143024A11606F
:10103000704700000000FA050CED00E0704700006A
:1010400029B1064A52690243044B5A6104E0034A3B
:1010500052698243014B5A61704700000010024000
:1010600029B1064A92690243044B9A6104E0034A9B
:1010700092698243014B9A61704700000010024060
:1010800030B500210022002400232D4D6D6805F0AD
:101090000C0121B1042905D0082923D105E0294DEF
:1010A000056022E0274D05601FE0254D6D6805F4C1
:1010B0007012234D6D6805F48034022505EB9242D1
:1010C0001CB9214D554305600BE01D4D6D6805F4BD
:1010D00000351DB11C4D5543056002E0194D5543C7
:1010E000056002E0174D056000BF00BF144D6D683C
:1010F00005F0F0010909154D6B5C0568DD404560A0
:101100000F4D6D6805F4E061090A104D6B5C456890
:10111000DD4085600A4D6D6805F46051C90A0B4DCC
:101120006B5C4568DD40C560054D6D6805F4404168
:10113000890B074D6B5CC568B5FBF3F5056130BDE8
:101140000010024000127A0000093D00000000205B
:10115000100000207CB5054600240020009001907E
:1011600000F0E2F800F0007010B10E2420467CBDC3
:101170003D49098888B26946FFF72CFA04460CB14C
:101180002046F4E7012D36D1019800F48020002894
:101190002ED0354800880004344908603720486064
:1011A000402088600020C860A8020861084600F05E
:1011B000F9F83720FFF766F804460CB12046D6E769
:1011C00002202A49086006204860402088600020EC
:1011D000C8604FF480600861084600F0E3F806201C
:1011E000FFF750F804460CB12046C0E72046BEE7A2
:1011F00025242046BBE7019800F4803078B31A48D4
:101200000088000419490860372048604020886041
:101210000020C8604FF480600861084600F0C2F802
:101220003720FFF72FF804460CB120469FE7002037
:101230000E49086006204860402088600020C86091
:101240004FF480600861084600F0ACF80620FFF714
:1012500019F804460CB1204689E7204687E7FFE7E6
:101260002524204683E7000044000020341100209C
:10127000014988637047000000800140014988638C
:10128000704700000080014001490860704700007D
:10129000A000304201490860704700008C053042D0
:1012A00000210A4B02685A6242689A621A46D16A61
:1012B00021F0F701D0E902231A4303691A43436975
:1012C0001A431143014AD162704700000080014077
:1012D00000200649086048608860C86048628862EB
:1012E000C862034888630020C863704700800140DB
:1012F000FF07C00001480069C0B27047008001408C
:1013000001460020034A526B0A400AB1012000E066
:1013100000207047008001400248006800F0030090
:10132000704700000080014008B501460020009091
:101330000248084400900098006808BD14800140ED
:1013400010B500F027FC10BD29B1064AD26B02434C
:10135000044BDA6304E0034AD26B8243014BDA6345
:10136000704700000080014000210A4A516847F69A
:10137000FF629143027D83681A4343681A43C3683E
:101380001A4303681A4303691A431143014A51601F
:10139000704700000080014001480068704700006D
:1013A000808001400021094B02689A601A46D1688A
:1013B0006FF30A01D0E901231A43C3681A43036992
:1013C0001A431143014AD160704700000080014078
:1013D0000549096821F00301034A116011460968B3
:1013E00001431160704700000080014010B50248C1
:1013F000FFF72CF810BD00000020001030B58BB0B6
:1014000005460C461348FFF707F800211248FFF77E
:1014100011F812480090019500200290A008039056
:1014200000200490802005908000069080000790A6
:10143000002008904FF40050099000200A9069465F
:101440000548FFF719F801210348FEF7F3FF0BB039
:1014500030BD000000F000104404024080800140D4
:1014600030B58BB005460C461348FEF7D5FF00217A
:101470001248FEF7DFFF12480090019510200290FD
:10148000A008039000200490802005908000069022
:1014900080000790002008904FF400500990002031
:1014A0000A9069460548FEF7E7FF01210348FEF769
:1014B000C1FF0BB030BD000000F00010440402403A
:1014C0008080014070B5044600252148006803284B
:1014D00002D12725284670BD1D48006838B11C4838
:1014E0000068012803D01A48006802282ED1B4F5FC
:1014F000805F02D127252846EDE7B4F5006F14D1AF
:101500000120FFF727FE054605BB0120114908759C
:1015100000200860486088604FF40060C8600020C8
:1015200008610846FFF720FF10E00020FFF712FED9
:1015300005465DB90120074908750020086048602C
:101540008860C86008610846FFF70EFF2846C2E7BA
:10155000400000201C11002030B501460020002270
:10156000AC4B1B7881F84E30AB4B1B88A1F84C304C
:10157000AA4B1B681A0E93090B70C2F383034B70BE
:1015800002F003038B70A54B1B68C3F30742CA70BC
:10159000A24B1B88C3F307220A71A04B1A784A7129
:1015A0005B681A0E1301CB809C4B5B68C3F3074248
:1015B000CB8843EA1213CB8002F00F030B72974BD8
:1015C0009B88C3F30722D3094B72C2F380138B723B
:1015D000C2F34013CB72C2F300130B7300234B739F
:1015E0008C4B1B681BB18B4B1B68012B3CD19307A9
:1015F0001B0D0B61894B1A790B6943EA82030B615E
:10160000864B9B681A0E0B6943EA92130B61C2F377
:10161000C2030B7502F007034B75804B9B68C3F345
:10162000074253098B75C2F38203CB7593075B0F97
:101630000B767A4B1B89C3F307220B7E43EAD21346
:101640000B760B695B1C4B640C7E4B6CA41C012558
:10165000A5406B434B640C7A0123A3408B64D1E912
:10166000113463434B6421E06A4B1B68022B1DD18C
:101670006A4B1A7993069B0A0B61684B9B681A0E9A
:101680000B6943EA02230B61644B9B68C3F3074277
:101690000B6913430B61614B1B89C3F307220B6971
:1016A0005B1CDB044B644FF400738B64C2F3801348
:1016B00001F8193F93065B0E4B70584B1A7A4B7822
:1016C00043EAD2134B7002F07F038B70534BDB68FD
:1016D0001A0ED309CB70C2F341130B71C2F382030C
:1016E0004B7193071B0F8B714C4BDB68C3F30742A5
:1016F0008B7943EA92138B71C2F34013CB710023B1
:101700000B7202F001034B72444B9B89C3F3072217
:10171000D3098B72C2F38013CB72C2F340130B73E5
:10172000C2F300134B73C2F381038B7302F0030304
:10173000CB733A4B1A7B53080B7401234B74384B11
:101740001B681A0ECA741939354B1B68C3F307425C
:101750001402CC85324B1B88C3F30722CB8D134375
:10176000CB852F4B1A7814060C635B681A0E0B6B33
:1017700043EA02440C632A4B5B68C3F307420B6BDA
:1017800043EA02240C63264B9B88C3F307220B6BAE
:1017900013430B63224B1A7934235A54204B9B6812
:1017A0001A0E35235A541E4B9B68C3F30742140686
:1017B0008C631B4B1B89C3F307228B6B43EA0244E8
:1017C0008C63174B1A7A8B6B43EA02248C63144B9D
:1017D000DB681A0E8B6B13438B63114BDB68C3F30F
:1017E00007423C235B5C43EA12143C235C5413071E
:1017F0001C0DCC870A4B9B89C3F30722CB8F134365
:10180000CB87074B1A7B540840235C5401244123A7
:101810005C5430BD40000020440000209C1000209B
:10182000AC10002008B500200090684600F06CFA6B
:1018300008B1FF2008BD0098C0F34320FAE710B5B7
:101840000424FFF7EFFF0446042C01D1002010BD53
:10185000FF2C01D10220FAE70120F8E710B500249F
:10186000FFF795FBFEF784FFFFF732FD00F0CEF89F
:1018700004460CB1204610BD00F02AF804460CB115
:101880002046F8E7012010490875002008604860EC
:101890008860C86008610846FFF766FD1CB90B4800
:1018A000FFF75AFE044634B90849B1F84C10080451
:1018B00000F010FA044624B94FF40060FFF702FE6E
:1018C00004462046D7E700001C110020CC10002061
:1018D00038B5002401200090FFF71EFD10B9252423
:1018E000204638BD44480068042828D000204349D9
:1018F000086002204860C02088600020C8604FF463
:10190000806008610846FFF74DFDFEF7CFFC0446F6
:101910000CB12046E5E70020FFF706FD38490860D6
:101920000420FFF701FD364948600820FFF7FCFC62
:10193000334988600C20FFF7F7FC3149C8602E4816
:10194000006858B12C480068012807D02A48006870
:10195000062803D028480068022816D1002027490D
:10196000086003204860402088600020C8604FF471
:10197000806008610846FFF715FD69460320FEF701
:10198000D7FC04460CB12046ABE71B48006804288E
:101990002ED0BDF800001B490860BDF8000000040F
:1019A0001649086009204860C02088600020C8608F
:1019B0004FF4806008610846FFF7F4FCFEF776FC00
:1019C00004460CB120468CE70020FFF7ADFC0E4921
:1019D00008600420FFF7A8FC0B4948600820FFF7C7
:1019E000A3FC094988600C20FFF79EFC0649C860EB
:1019F0000024204675E7000040000020341100203C
:101A0000AC100020440000209C1000202DE9F04183
:101A10000024002600250027A046B2205949087559
:101A20000020086048608860C86008610846FFF7C9
:101A30009BFC0320FFF7CCFC0120FFF725FC0020D6
:101A40005149086048608860C8604FF48060086150
:101A50000846FFF7A7FCFEF7FEFB044614B120463C
:101A6000BDE8F0814FF4D570474908600820486010
:101A7000402088600020C8604FF4806008610846FC
:101A8000FFF790FCFEF7A2FC04462CB901203F4969
:101A900008604FF0804812E000203B490860372082
:101AA0004860402088600020C8604FF48060086172
:101AB0000846FFF777FC3720FEF7E4FB04460020DA
:101AC0003149086037204860402088600020C860A5
:101AD0004FF4806008610846FFF764FC3720FEF78A
:101AE000D1FB0446002C4AD136E00020264908608C
:101AF00037204860402088600020C8604FF4806034
:101B000008610846FFF74EFC3720FEF7BBFB044692
:101B10000CB12046A4E71E4848EA00001A490860B4
:101B200029204860402088600020C8604FF4806011
:101B300008610846FFF736FCFEF7DEFB04460CB1F1
:101B400020468DE70020FFF7EFFB0646012080EAE4
:101B5000D67080F001076D1C1FB94FF6FF708542EB
:101B6000C3D34FF6FF70854202D31B24204677E78C
:101B700006F08040061E02D002200449086020467C
:101B80006EE700001C1100203411002040000020EE
:101B90000000108010B51148006801280BD100200A
:101BA0000F49886040F24C40C8600C20FEF76AFB89
:101BB0000C49087002E000200A4908704FF4807058
:101BC000FFF75CFB00214FF48070FFF7BDFB0120A5
:101BD000054908600348007810BD00004800002057
:101BE000008001404C000020500000202DE9F04111
:101BF00080460D4614461E46002700202E490870D8
:101C00002E49086001202E49086000202D49C86235
:101C10002D480068022801D104026D0A2B48046097
:101C200010202A494860402088600020C8604FF496
:101C3000806008610846FFF7B5FB1020FEF722FB25
:101C4000074617B13846BDE8F0814FF0FF30204914
:101C5000086006FB04F04860902088600220C8609D
:101C600000200861012048610846FFF719FB17486A
:101C70000560122015494860402088600020C86037
:101C80004FF4806008610846FFF78CFB1220FEF7D6
:101C9000F9FA07460FB13846D5E701210802FFF7E8
:101CA00053FB0120FFF7F6FA06FB04F14046FFF76D
:101CB000A5FB3846C7E700004C000020500000207C
:101CC0004800002000800140400000203411002026
:101CD0004811002070B5044600250A48046007201A
:101CE00008494860402088600020C8604FF4806048
:101CF00008610846FFF756FB0720FEF7C3FA0546C2
:101D0000284670BD3411002070B5044600250A48ED
:101D1000008800040949886040F24D40C8600D20E9
:101D2000FEF7B0FA05460DB1284670BD034840697C
:101D300020602846F9E700004400002000800140B0
:101D400010B5002400BFFFF751FB30B90748006809
:101D500018B9074800780028F5D00548007810B178
:101D60000348007810BD2046FCE70000500000202A
:101D70004C00002010B5002400BFFFF737FB30B93E
:101D80000948006818B9094800780028F5D00748C4
:101D9000007810B10548007810BD40F2FF50FFF701
:101DA00067FA2046F8E70000500000204C000020B1
:101DB0002DE9F84380460F4615461E4600240020B4
:101DC0000090454908704549086001204449086071
:101DD00000204449C86244480068022801D1050235
:101DE0007F0A4248056010204049486040208860D2
:101DF0000020C8604FF4806008610846FFF7D2FAFF
:101E00001020FEF73FFA044614B12046BDE8F883DF
:101E10003748008800043549086037204860402072
:101E200088600020C8604FF4806008610846FFF7B2
:101E3000B9FA3720FEF726FA04460CB12046E5E74A
:101E40002A48066017202949486040208860002001
:101E5000C8604FF4806008610846FFF7A3FA1720B6
:101E6000FEF710FA04460CB12046CFE71F48076082
:101E700019201E494860402088600020C8604FF447
:101E8000806008610846FFF78DFA1920FEF7FAF91D
:101E900004460CB12046B9E74FF0FF301549086001
:101EA00006FB05F04860902088600020C86008614B
:101EB000012048610846FFF7F3F901210802FFF706
:101EC00043FA0120FFF7E6F906FB05F14046FFF76C
:101ED000C7FA20469AE700004C000020500000207E
:101EE0004800002000800140400000203411002004
:101EF0004400002048110020704710B500F002F89F
:101F000010BD00000CB5002001900090334800681F
:101F100040F480303149086000BF3048006800F468
:101F2000003000900198401C0190009818B9019869
:101F3000B0F5A06FF1D12948006800F4003010B16D
:101F40000120009001E0002000900098012843D17A
:101F50002348006840F010002149086008460068E6
:101F600020F0030008600846006840F002000860A6
:101F70001A48406819494860084640684860084661
:101F8000406840F4806048600846406820F47C1057
:101F900048600846406840F4E81048600846006819
:101FA00040F08070086000BF0C48006800F00070CE
:101FB0000028F9D00948406820F00300074948602C
:101FC0000846406840F00200486000BF034840688F
:101FD00000F00C000828F9D10CBD000000100240F0
:101FE000002002407047000010B51348006840F020
:101FF00001001149086008464068104908400E4930
:102000004860084600680E4908400B4908600846C9
:10201000006820F4802008600846406820F4FE0034
:1020200048604FF41F008860FFF767FF4FF00060C3
:102030000449086010BD0000001002400000FFF8D5
:10204000FFFFF6FE08ED00E021B1828942F4005264
:10205000828104E082894DF6FF731A4082817047C5
:1020600000B585B001210420FEF7FAFF01218803A5
:10207000FEF7F6FF4FF40070ADF8100018208DF851
:10208000130003208DF8120004A91348FEF798FBF3
:102090004FF48060ADF8100004208DF8130004A9FF
:1020A0000D48FEF78DFB4FF4E13000900020ADF8B5
:1020B0000400ADF80600ADF80800ADF80C000C20E7
:1020C000ADF80A006946054800F018F801210348F8
:1020D000FFF7BAFF05B000BD00080140003801401D
:1020E00002460020B1F5007F00D100BF13880B40ED
:1020F0000BB1012000E00020704700002DE9F047FF
:1021000086B005460E460024A24600BFA146002721
:10211000B08900B100BF2F462C8A4CF6FF700440F6
:10212000F08804432C82AC894EF6F3100440B0884A
:1021300031890843718908430443AC81AC8A4FF666
:10214000FF400440B0890443AC8201A8FEF798FF29
:102150001F48874202D1DDF810A001E0DDF80CA095
:10216000A88900F4004040B10AEBCA0000EB0A1055
:1021700031684900B0FBF1F807E00AEBCA0000EB58
:102180000A1031688900B0FBF1F86420B8FBF0F068
:1021900004012009642101FB1089A88900F4004092
:1021A00040B1322000EBC900B0FBF1F000F00700B5
:1021B000044308E0322000EB09106421B0FBF1F089
:1021C00000F00F0004432C8106B0BDE8F08700004A
:1021D00000380140C1F308028280704700BFFEE76B
:1021E0000FB4054B10B503A9044A029800F018F883
:1021F00010BC5DF814FB0000E53F00086000002003
:1022000002E008C8121F08C1002AFAD170477047BF
:10221000002001E001C1121F002AFBD1704700001D
:102220002DE9FF4F8BB09A460F460446002606E084
:1022300025280BD052460D999047641C761C2078B7
:102240000028F5D10FB03046BDE8F08F0025A94633
:1022500001227D4900E0054314F8013F203B02FACA
:1022600003F00842F7D120782E2817D114F8010F77
:1022700045F004052A280ED06FF02F022078A0F137
:10228000300109290AD809EB890102EB410100EB71
:102290000109641CF2E757F8049B641C20786C2841
:1022A0000DD004DC4C2812D06A2811D104E0742827
:1022B0000DD07A280CD10AE045F4001507E06178CA
:1022C00045F48015814202D1641C05F58015641C1B
:1022D000207869283ED006DC0028B3D063280BD0D4
:1022E000642804D136E0732810D075285CD052469B
:1022F0000D999047761CA5E017F8040B8DF80000A7
:1023000000208DF80100E846012003E057F8048B17
:102310004FF0FF3069074FF0000501D40AE06D1C53
:102320004D450DDA8542FADB18F805100029F6D183
:1023300006E06D1C8542FCDB18F805100029F8D179
:102340002E4404E018F8010B52460D9990476D1E7B
:10235000F8D277E000200A90C5F302504FF00A0B44
:1023600002280CD001CFC117021E71F100020CDA55
:102370000023D0EB030063EB01012D2208E0FF1DD9
:1023800027F00707F7E80201EEE72A0504D52B221C
:102390008DF82420012203E0EA070FD02022F7E77E
:1023A0000DF12008089218E000200A90C5F30250B1
:1023B0004FF00A0B022803D001CF00210022EFE7E3
:1023C000FF1D27F00707F7E80201F7E75A460A9BC7
:1023D000FDF7DCFE303208F8012D50EA0102F5D19C
:1023E000ADEB080000F1200B680701D44FF00109A4
:1023F000D94502DDA9EB0B0000E000208146002555
:1024000006E009A85246405D0D9990476D1C761C68
:1024100008988542F5DB04E0302052460D9990473C
:10242000761CB9F10001A9F10109F5DC05E018F805
:10243000010B52460D999047761CBBF10001ABF1A0
:10244000010BF4DC641CFAE60928010002460020B6
:10245000CB1C23F00301136F8B4205D3136F5B1A60
:102460001367D06E4318D36670472DE9F05F0446BA
:102470008846267B2768656895F800A0002083467B
:10248000814600BF36BB67B9A5684FF40072294684
:102490002046636F9847074627B96FF00100BDE8F3
:1024A000F09F6D1C7F1EBBF1000F0AD04FF0000B98
:1024B000287810B16FF00500F1E7FF208246287000
:1024C00007E095F800A0BAF1FF0F02D14FF0010B21
:1024D0000BE080264FEA49090AEA060008B109F133
:1024E00001097610A8F1010800BFB8F1000FC9D1A9
:1024F0002673276065604846D1E700002DE9F04F5C
:1025000087B00C464FF4B55BCDF818B041F2511BC3
:10251000CDF814B042F6CF1BCDF810B041F6905B69
:10252000CDF80CB04FF0000BCDF800B080E0D0F843
:1025300000C0D0F84080D0F88090D0F8C0100CEBEC
:10254000090AACEB090BCDF808B0A8EB010B4FF46E
:10255000B55E0BFB0EFB4FEA2B3741447F1A0AEBAB
:10256000010CAAEB0101DDF808B007EB0B08DDF860
:1025700008B0ABEB0709D0F8E050036AD0F8A060D0
:10258000026EA3EB050A5F19A6EB020BCDF808B0AB
:102590003244A7EB020B0BFB0EFB4FEA2B333A4402
:1025A000DDF808B0D34441F6905E0BFB0EFB4FEA1A
:1025B0002B3BCDF804B041F2511B0AFB0BFEDDF8BA
:1025C00004B0ABEB2E3542F6CF1EDDF808B00BFBA6
:1025D0000EFEDDF804B0ABEB2E3BABEB02069B1B13
:1025E000ED1A0CEB020BC0F800B0ACEB020BC0F81C
:1025F000E0B008EB060BC0F820B0A8EB060BC0F863
:10260000C0B009EB030BC0F840B0A9EB030BC0F856
:10261000A0B001EB050BC0F860B0A1EB050BC0F852
:1026200080B0001DDDF800B00BF1010BCDF800B05B
:10263000DDF800B0BBF1080FFFF479AF20384FF0A0
:10264000000BCDF800B0A2E0D0F800B00BF5004CC4
:10265000D0F80880D0F8109081690CEB090AACEB37
:10266000090BCDF808B0A8EB010B4FF4B55E0BFBDE
:102670000EFB4FEA2B3741447F1A0AEB010CAAEB01
:102680000101DDF808B007EB0B08DDF808B0ABEB93
:102690000709C56943684669C268A3EB050A5F1963
:1026A000A6EB020BCDF808B03244A7EB020B0BFBF4
:1026B0000EFB4FEA2B333A44DDF808B0D34441F621
:1026C000905E0BFB0EFB4FEA2B3BCDF804B041F2C2
:1026D000511B0AFB0BFEDDF804B0ABEB2E3542F6C6
:1026E000CF1EDDF808B00BFB0EFEDDF804B0ABEB3F
:1026F0002E3BABEB02069B1BED1A0CEB020BCBF354
:10270000092BDFF89CE01EF80BB084F800B0ACEBAE
:10271000020BCBF3092B1EF80BB084F807B008EBC3
:10272000060BCBF3092B1EF80BB084F801B0A8EB15
:10273000060BCBF3092B1EF80BB084F806B009EB9F
:10274000030BCBF3092B1EF80BB084F802B0A9EBF6
:10275000030BCBF3092B1EF80BB084F805B001EB8B
:10276000050BCBF3092B1EF80BB084F803B0A1EBDB
:10277000050BCBF3092B1EF80BB084F804B008341A
:102780002030DDF800B00BF1010BCDF800B0DDF822
:1027900000B0BBF1080FFFF457AF07B0BDE8F08FF2
:1027A000CA9B000870B504460D4600202071401EEB
:1027B000E0622946204602F0E9FC08B1032070BD22
:1027C00094F82E1294F82F0241EA00204AF655217F
:1027D000884201D00220F2E794F86900010694F8DB
:1027E000680041EA004194F8670041EA002094F84B
:1027F0006610084320F07F400D49884201D1002037
:10280000DDE794F88500010694F8840041EA004170
:1028100094F8830041EA002094F88210084320F0E5
:102820007F400349884201D10020C8E70120C6E764
:1028300046415400024600E0521C107810B1107856
:102840008842F9D1107870470246891E5069801E6F
:10285000884201D8002070479378906A01FB0300FA
:10286000F9E700002DE9F04780460C46A17EE07EA6
:1028700041EA002010B10020BDE8F087207800F088
:102880003F00401E00EB800101EBC0064FF0010944
:10289000002524E01A48405D205C1949495D214427
:1028A000497840EA0127B9F1000F11D0FF2E0BD271
:1028B000384601F0F5F882463146761C38F81100AA
:1028C00001F0EEF8824501D00020D5E7B94605E0D9
:1028D0004FF6FF70874201D00020CDE76D1C0D2D13
:1028E000D8D3207800F0400038B1B9F1000F04D0FF
:1028F00038F8160008B10020BEE70120BCE7000050
:10290000189200082DE9F04704468946B9F1000FF6
:1029100006D1E76817B16069B84215D8012713E0FE
:102920004946204601F0F2FB0646022E02D2012063
:10293000BDE8F087701C08B93046F9E76069B0421D
:1029400001D93046F4E74F463D4600BF6D1C606933
:10295000A84204D80225BD4201D90020E8E7294653
:10296000204601F0D3FB064606B909E0701C08B109
:10297000012E01D13046DBE7BD42E7D10020D7E789
:1029800000BF6FF070422946204602F065FC804689
:10299000B8F1000F08D1B9F1000F05D02A46494619
:1029A000204602F059FC8046B8F1000F0BD1E560DB
:1029B0002069401C78B12069401E2061607940F098
:1029C0000100607107E0B8F1010F02D14FF0FF3054
:1029D00000E0012005462846AAE72DE9F74F86B01A
:1029E0000D4616468EE0112E03D2062009B0BDE832
:1029F000F08F113E15F801AB4FEA2A190AF00F00CB
:102A000003900AF0EE0008B10620EFE710210698C7
:102A1000FFF71CFD8046B8F1000F01D10320E5E768
:102A200006982430039900EBC10040F8298000206B
:102A30000446074607E015F8010B049008F8040067
:102A400004980744641C102CF5D379000698FFF70E
:102A5000FDFC8346BBF1000F01D10320C6E70698B9
:102A60003430039900EBC10040F829B000200190F8
:102A70000446059019E018F80400049009E0059850
:102A8000421C019905922BF810100198401C80B24D
:102A900001900498411E04910028F0D14FF6FF7177
:102AA000019801EA40000190641C102CE3D3BE425F
:102AB00001D206209AE7F61B39460698FFF7C6FCB6
:102AC0000290029808B9032090E706984430DDE9A7
:102AD000021200EBC20040F82910002410E015F8A3
:102AE00001ABB9F1000F04D1BAF10B0F01DD0620E3
:102AF0007CE7029880F800A00298401C0290641CB9
:102B0000BC42ECD3002E7FF46EAF00206EE70000D5
:102B10002DE9F34F83B082460498D0F800B001E06D
:102B20000BF1010B9BF800002F28F9D09BF8000057
:102B30005C28F5D0DAF81C9000252E4600BF304600
:102B4000761C1BF80040202C03DB2F2C01D05C2CC2
:102B500000D11CE0FF2D03D3062005B0BDE8F08FA7
:102B6000E4B20121204600F075FF04460CB90620AE
:102B7000F3E7802C06DA21466BA0FFF75BFE08B175
:102B80000620EAE728466D1C29F81040D7E700BF69
:102B90000BEB060104980160202C01DA042000E010
:102BA0000020074608E0681E39F81040202C02D0AB
:102BB0002E2C00D002E06D1E002DF4D100BF0DB907
:102BC0000620CAE7002029F815000B222021DAF898
:102BD000180002F0D1FA002600E0761C39F8160041
:102BE0002028FAD039F816002E28F6D00EB147F07A
:102BF000030700E06D1E25B1681E39F810002E286D
:102C0000F8D14FF00008CDF808800820019000BFEF
:102C10003046761C39F8104004B955E0202C03D01A
:102C20002E2C04D1AE4202D047F00307F0E7DDE9D5
:102C30000110884201D2AE4216D101980B2802D170
:102C400047F0030740E0AE4201D047F00307AE4231
:102C500000D939E02E46082002900B2001904FEA5F
:102C600088604FEA1068D3E7802C0BDB00212046F8
:102C700000F0F0FE04461CB1A4F180002D490C5C6C
:102C800047F0020700BF24B121462BA0FFF7D2FD79
:102C900018B15F2447F003070FE0412C04DB5A2CE6
:102CA00002DC48F0020808E0612C06DB7A2C04DC28
:102CB00048F00108A4F1200084B2DAF81830029834
:102CC000411C02911C54A3E700BFDAF818000078F9
:102CD000E52803D10520DAF81810087001980828B3
:102CE00003D14FEA88604FEA106808F00C000C2806
:102CF00003D008F00300032801D147F0020707F0D2
:102D0000020058B908F00300012801D147F010076C
:102D100008F00C00042801D147F00807DAF8180081
:102D2000C772002019E70000222A3A3C3E3F7C7F10
:102D300000000000989100082B2C3B3D5B5D0000DB
:102D40002DE9F04782460C4616462BE0412E02D272
:102D50000620BDE8F087413E14F8018B08F0F00032
:102D600008B10620F5E708F003074FF480715046DC
:102D7000FFF76CFB05460DB90320EAE70AF15400A2
:102D800040F8275000270BE0084810F8079014F887
:102D9000010B074931F81910484345F829007F1CF9
:102DA000402FF1D3002ED1D10020D2E70A9B00089A
:102DB0004A9B0008002107E0002201E0531C9AB260
:102DC0008242FBDB4B1C99B28142F5DB70472DE957
:102DD000F04104460E460021204600F0CDF905469C
:102DE000EDB9002700BF2169206802F0CFF9054640
:102DF00005B113E060690078E52802D060690078C9
:102E000020B9781C0746B04201D107E00027012114
:102E1000204600F07FF80546002DE4D000BF042DC9
:102E200000D107252846BDE8F0812DE9F04704468A
:102E30000021204600F0A0F9074617B13846BDE84A
:102E4000F0874FF0FF09CA464FF6FF70208400BF9D
:102E50002169206802F09AF9074607B157E06569D1
:102E60002E780EB9042752E0E87A00F03F08E52EEC
:102E700005D008F0080040B1B8F10F0F05D04FF0B1
:102E8000FF094FF6FF7020843AE0B8F10F0F1CD114
:102E9000E06978B306F0400030B195F80DA026F057
:102EA0004006B146E08820844E450AD1687B5045F3
:102EB00007D12946E069FFF7D5FC10B1A9F101005F
:102EC00000E0FF2000F0FF091AE0B9F1000F05D182
:102ED000284602F0FBFA504500D118E0A069C07AFC
:102EE00000F0010038B90B222846A16902F024F94C
:102EF00008B90CE004E04FF0FF094FF6FF702084A2
:102F00000021204600F006F80746002FA0D000BFA1
:102F1000384694E72DE9F04104468846E088461C8F
:102F2000B0B208B1206910B90420BDE8F081216871
:102F30004889C11700EBD1614911B6FBF1F201FBE1
:102F40001261002971D12069401C2061E06828B914
:102F500020680089B04268D80420E6E721684889E3
:102F6000C11700EBD1614911B6FBF1F122689278EB
:102F7000521E1140002958D1E168206801F0C6F8BE
:102F80000546012D01D80220CFE7681C08B90120B1
:102F9000CBE720684069A84241D8B8F1000F01D1C1
:102FA0000420C2E7E1682068FFF7ACFC05460DB9D4
:102FB0000720BAE7012D01D10220B6E7681C08B945
:102FC0000120B2E7206802F0F5FA08B10120ACE771
:102FD00021684A8901F13000002102F0CDF829462C
:102FE0002068FFF731FC2168C86200270EE001204D
:102FF00021680871206802F0DDFA08B1012094E729
:103000002068C06A401C2168C8627F1C20688078E4
:10301000B842ECD82068C06AC01B2168C862E5606D
:1030200029462068FFF710FC2061E6802168488966
:10303000C11700EBD1614911B6FBF1F201FB12613E
:103040002268303202EB4111616100206DE72DE909
:10305000FE4F0446D4F81880D4F81C900C22414648
:10306000684602F07CF800BF9DF80B0000F00100FC
:1030700020B3002088F80B00E06101260CE0334605
:103080004A466946404600F0E7FF2046FFF7CDFE7E
:10309000054605B102E0761C642EF0D300BF642E15
:1030A00002D10720BDE8FE8F042D01D02846F9E7A4
:1030B0009DF80B0088F80B00C4F81C909DF80B00DD
:1030C00000F0020060B1002600E0761C39F816001E
:1030D0000028FAD106F119000D21B0FBF1F700E04C
:1030E000012739462046FFF772FE054645BB781E8C
:1030F000071E25D0E088C11B204600F03DF805469C
:10310000F5B9A06902F0E2F9824600BF21692068A2
:1031100002F03CF8054605B111E0FAB25346616988
:10312000E06900F0D7FE01202168087100212046E7
:10313000FFF7F0FE054615B9781E071EE6D100BF61
:10314000C5B92169206802F021F8054695B9202209
:103150000021606902F010F80B22D4E9050101F0AA
:10316000FEFFA069C07A00F01800616908730120B1
:1031700021680871284695E72DE9F04104460E467E
:10318000E680A568012D03D020684069A84202D8D6
:103190000220BDE8F0812DB920680078032801D114
:1031A0002068456A45B920680089B04201D80220EC
:1031B000EFE72068476A24E021684889C11700EBDF
:1031C000D16149112268927801FB02F812E0294688
:1031D000206800F09BFF0546681C08B90120D8E76D
:1031E000022D03D320684069A84201D80220D0E70D
:1031F000A6EB08064645EAD229462068FFF724FBDD
:103200000746E5600FB90220C3E721684889C11766
:1032100000EBD1614911B6FBF1F13944216121681C
:103220004889C11700EBD1614911B6FBF1F201FBEE
:1032300012612268303202EB411161610020A8E77F
:1032400070B50446012514B1012C09D107E0FEF741
:1032500005FB10B925F0010500E0012502E001E0C1
:10326000012500BF00BF284670BD000030B50346F1
:10327000042013B1012B1CD11AE0A9B101290BD0F4
:10328000022902D0032910D103E04FF40074148006
:103290000BE00124146008E0084C646C074DAD6C31
:1032A000B4FBF5F4146000E000BF00BF002002E0B2
:1032B00001E0042000BF00BF30BD0000CC100020A2
:1032C0002DE9F047ADF5007D06460C4615461F4634
:1032D0004FF0040A4FF0000816B1012E41D13FE033
:1032E00004F0030000B34FF0000913E02A466D1C00
:1032F000012369460020FFF7E3FF8146B9F1000F83
:1033000000D00BE04FF4007269462046FCF72CFF1A
:1033100004F50074381EA7F10107E7D100BF484645
:103320000DF5007DBDE8F08769023B464FF4007261
:103330002046FEF75BFC8046B8F1000F07D1FEF790
:10334000FFFC804600BFFEF77AFA0028FBD1B8F1F7
:10335000000F02D04FF0040A01E04FF0000A03E032
:1033600002E04FF0040A00BF00BF5046D8E7014614
:10337000012011B1012904D102E020F0010002E096
:1033800001E0012000BF00BF70472DE9F047ADF517
:10339000007D07460C4615461E464FF0040A4FF0C6
:1033A000000826B904200DF5007DBDE8F08717B1AF
:1033B000012F3ED13CE004F00300E8B14FF00009DA
:1033C00013E04FF4007221466846FCF7CDFE2A4612
:1033D0006D1C012369460020FFF7D7FF8146B9F134
:1033E000000F00D005E004F50074301EA6F10106C0
:1033F000E7D100BF4846D6E7690233464FF4007272
:103400002046FEF7D5FC8046B8F1000F07D1FEF745
:10341000B1FC804600BFFEF712FA0028FBD1B8F1DC
:10342000000F02D04FF0040A01E04FF0000A03E061
:1034300002E04FF0040A00BF00BF5046B3E770B58A
:103440000546284600F0ADFA044634B9284602F095
:10345000DAF804460CB900202860204670BD2DE93A
:10346000F04704460E46204602F0CDF88246BAF1F7
:10347000000F02D05046BDE8F087E07908B1E0794E
:10348000F9E7E068B04204D2A07900F0020000B988
:10349000E668D4F808904FF00008C4F80880002EC1
:1034A00071D0206880782168498900FB01F7B9F163
:1034B000000F11D0701EB0FBF7F1A9F10100B0FBB5
:1034C000F7F0814208D3A9F10100791E8843A0607A
:1034D000A068361A656912E025697DB90021206867
:1034E000FFF710FA0546012D02D10220E071C2E774
:1034F000681C10B90120E071BDE725616561002DF0
:1035000041D023E0A07900F0020038B129462068BC
:10351000FFF7F8F9054635B93E4619E02946206817
:1035200000F0F4FD0546681C10B90120E071A2E727
:10353000012D03D920684069A84202D80220E07119
:1035400099E76561A0683844A060F61BBE42D9D8EF
:1035500000BFA0683044A06020684089B6FBF0F14D
:1035600000FB116078B129462068FFF76DF98046AD
:10357000B8F1000F02D10220E0717CE72068408999
:10358000B6FBF0F0804421684989A068B0FBF1F2F5
:1035900001FB120020B3A069404521D0A07900F0C2
:1035A000400078B121684878012304F12401A26920
:1035B000FFF7EBFE10B10120E0715CE7A07920F08D
:1035C0004000A071216848780123424604F124019B
:1035D000FFF776FE10B10120E0714CE7C4F81880C7
:1035E000D4E90201884205D9A068E060A07940F0E2
:1035F0002000A07150463EE7F7B582B0164603980A
:10360000019001A800F026FE0546002D02DA0B20ED
:1036100005B0F0BD0E4850F825400CB100202070D8
:10362000029810B10020029908700949029841F8E7
:103630002500029808B1012E01D00020E8E7002201
:1036400003A902A800F05AFA07463846E0E700004E
:10365000540000202DE9F743ADF50C7D05461646D4
:1036600025B909200DF50F7DBDE8F0830020286005
:1036700006F01F0626F001028DA983A800F03EFA8D
:103680000746002F74D180A88990CDF828D283A84E
:103690008D9900F05FFC0746889C0FB904B9062796
:1036A00006F01C0000285CD04FB1042F03D183A882
:1036B000FFF7CDFC074646F00806889C09E0E07A53
:1036C00000F0110008B1072703E006F0040000B184
:1036D0000827002F55D106F00800002851D000F02F
:1036E000B5FD804684F80E804FEA1821E1734FEA59
:1036F000184121744FEA1861617484F816804FEA0A
:103700001821E1754FEA184121764FEA1861617678
:103710000020E072207700216177A177E1772146D0
:10372000839801F0EBF881460021204601F0C6FEA7
:10373000012083990871B9F1000F22D08398D0F845
:103740002C804946839801F04BFE0746CFB9A9F17A
:1037500001008399C8604146839801F017FD074630
:103760000FE077B9E07A00F0100010B1042708E00C
:103770002DE006F0020020B1E07A00F0010000B177
:10378000072747B906F0080008B146F020068398DD
:10379000C06AE8612C62D7B9AE710020E871214699
:1037A000839801F0ABF82861E07F0106A07F41EA31
:1037B0000041607F41EA0020217F0843E86000204B
:1037C000A860A861839828602868C088A8803846C7
:1037D00048E72DE9FF4F85B0044615469A46DDF8C7
:1037E00018B00020CAF80000204601F00CFF049039
:1037F000049818B1049809B0BDE8F08FE07908B1D9
:10380000E079F8E7A07900F0010008B90720F2E7B5
:10381000D4E90210401A02900298854200D9029D14
:10382000BAE021684989A068B0FBF1F201FB1200FF
:10383000002877D121684989A068B0FBF1F02168A0
:103840008978491E084000F0FF09B9F1000F17D12F
:10385000A06810B92069039004E06169206800F055
:1038600055FC03900398022802D20220E071C2E7BF
:103870000398401C10B90120E071BCE70398606117
:1038800061692068FEF7E0FF064616B90220E07184
:10389000B1E74E4420684089B5FBF0F8B8F1000F5D
:1038A0002DD009EB080021688978884203D9206867
:1038B0008078A0EB0908216848784346324659468B
:1038C000FFF7FEFC10B10120E07194E7A07900F051
:1038D000400078B1A069801B40450BD2A169891BCB
:1038E00023685B8901FB03B021684A8904F1240144
:1038F00001F035FC2068408900FB08F742E0A06930
:10390000B04220D0A07900F0400080B12168487812
:10391000012304F12401A269FFF737FD18B101204A
:10392000E07168E710E0A07920F04000A071216804
:1039300048780123324604F12401FFF7C1FC10B19D
:103940000120E07157E7A66121684989A068B0FBB2
:10395000F1F201FB1200216849890F1AAF4200D928
:103960002F4621684989A068B0FBF1F201FB1201E2
:1039700004F1240008443A4601460190584601F0FB
:10398000EEFB00BFBB44A0683844A060DAF800003A
:103990003844CAF80000ED1B002D7FF442AF002030
:1039A00029E72DE9F0410446204601F02CFE0746A8
:1039B000002F4CD1A07900F02000002847D0A0793A
:1039C00000F0400078B121684878012304F1240117
:1039D000A269FFF7DAFC10B10120BDE8F081A079FF
:1039E00020F04000A071E169206801F0CFFB07469C
:1039F000002F2CD1256AE87A40F02000E872207B65
:103A00002877A089010A6977E068010CA977E06846
:103A1000010EE9772846216901F050FD00F016FCFF
:103A20000646AE75310AE975310C2976310E697694
:103A30000020A8740021E974A07920F02000A07172
:103A4000012021680871206801F050FD07463846C2
:103A5000C3E7000010B50246802A01DA10461BE0D9
:103A600051B1FF2A01DD002304E0A2F180030B4CD9
:103A700034F8133018460FE0002007E0074B33F806
:103A80001030934200D103E0431C98B28028F5DB4C
:103A900000BF00F18003D8B210BD000052920008B0
:103AA00030B5802807DA612823DB7A2821DCA0F1F1
:103AB0002005A8B21DE00C2200234FF4F77400BFCC
:103AC000E51A03EB55010B4D35F81150854200D135
:103AD0000AE0084D35F81150854201DA0B4600E046
:103AE0000C46551E2A1EEBD100BF12B1024D35F80F
:103AF000110030BD529300082E9700082DE9F74FB2
:103B00008AB000210A9801600B9800F0A3FB09908D
:103B10000998002803DA0B200DB0BDE8F08FE949C1
:103B2000099851F820400CB90C20F5E70A98046078
:103B3000207878B16078FFF71AFC814609F001001F
:103B400040B90C9820B109F0040008B10A20E3E75D
:103B50000020E1E700202070099860706078FFF78E
:103B60006FFB814609F0010008B10320D4E70C98EF
:103B700020B109F0040008B10A20CDE7607804F113
:103B80000A020221FFF772FB38B96089B0F5007FA5
:103B900003DB6089B0F5805F01DD0120BCE7002711
:103BA00039462046FEF7FEFD0546012D01D09DBB9E
:103BB00032E000261AE004F5F77000EB061898F8DA
:103BC000040070B198F80B00010698F80A0041EA69
:103BD000004198F8090041EA002098F808100843CD
:103BE00000E0002002A941F82600761C042EE2D352
:103BF000002606B1761E00BF02A850F8267027B135
:103C000039462046FEF7CEFD00E0022005461DB1F4
:103C1000701C06460428EFD3032D01D101207BE759
:103C20000DB10D2078E73B20015D94F83C0041EA9E
:103C300000206189884201D00D206DE74620015D9A
:103C400094F8470041EA002ABAF1000F0ED194F827
:103C50005700010694F8560041EA004194F85500D7
:103C600041EA002094F8541040EA010AC4F818A070
:103C70004020005DE070E078012804D0E078022860
:103C800001D00D2048E7E0780AFB00FA3D20005DF6
:103C9000A070A07818B1A078411E084008B10D208E
:103CA0003AE74120015D94F8420041EA002020817A
:103CB0006089C11700EBD1614911228992FBF1F3B0
:103CC00001FB132109B10D2026E74320015D94F883
:103CD000440041EA00200890089870B994F8530015
:103CE000010694F8520041EA004194F8510041EA7B
:103CF000002094F85010084308903E20015D94F88D
:103D00003F0041EA00200190019808B90D2003E727
:103D10006089C11700EBD1614911228992FBF1F250
:103D20000199514411440791DDE90710884201D2FD
:103D30000D20F1E6DDE90710401AA178B0FBF1FB98
:103D4000BBF1000F01D10D20E6E6012540F6F6702B
:103D5000834500D302254FF6F670834500D3032533
:103D60000BF102006061E761019838442062079816
:103D70003844A062032D16D1208908B10D20CBE66E
:103D800094F85F00010694F85E0041EA004194F85F
:103D90005D0041EA002094F85C10084360626069AD
:103DA0008000069014E0208908B90D20B4E6206A4E
:103DB00050446062022D02D16069400007E0207D1E
:103DC00000F00100616901EB410100EB5100069038
:103DD0006089401E069908446189B0FBF1F0A16931
:103DE000884201D90D2097E64FF0FF302061E06056
:103DF00080206071032D5AD194F8601094F861000E
:103E000041EA0020012852D1791C204601F0BEF978
:103E1000E8BB0020607194F82E1294F82F0241EA5A
:103E200000204AF65521884241D13320005D010629
:103E30003220005D41EA00413120005D41EA00206E
:103E400094F8301008432049884230D194F8170282
:103E5000010694F8160241EA004194F8150241EA7D
:103E6000002094F814120843184988421FD194F88E
:103E70001B02010694F81A0241EA004194F8190263
:103E800041EA002094F818120843206100E00EE097
:103E900094F81F02010694F81E0241EA004194F8CA
:103EA0001D0241EA002094F81C120843E0602570CE
:103EB00007480088401C80B205490880E080002047
:103EC0002AE60000540000205252614172724161A2
:103ED0005C000020F0B504461D464D730F27CF72DD
:103EE00000270F738F76BC4681F81BC0571E07EB67
:103EF000870C0CEBC706002738463B4600BF4FF641
:103F0000FF77B84203D03746761C34F81700DFF845
:103F100040C01CF803C001F80C000712DFF830C0E5
:103F20001CF803C08C448CF8017008B94FF6FF7080
:103F30005F1C3B460D2FE2D34FF6FF77B84202D00D
:103F400034F816700FB942F040020A70F0BD00005C
:103F5000189200082DE9F3410446019800782F28B3
:103F600003D0019800785C2802D10198401C019090
:103F70000020A06001980078202807D20021204668
:103F8000FFF7FAF805460020606128E000BF01A9AC
:103F90002046FEF7BDFD054605B11FE02046FEF7B1
:103FA00044FF0546A069C67A3DB1042D04D100BF87
:103FB00006F0040000B9052510E006F0040000B189
:103FC0000CE06769F87A00F0100008B9052505E0F3
:103FD0003946206800F092FCA060D8E700BF284670
:103FE000BDE8FC8170B504460D46E1B20548FEF718
:103FF000F1F800BF80210348FEF772F80028F9D0DD
:10400000204670BD0038014010B5002821D0114B6A
:104010000022001F196803E0814203D80A4649685C
:104020000029F9D152B11368841A9C4204D1006866
:1040300018441060104602E0506000E0186039B18A
:1040400002680B1A934203D10B681A440260496854
:10405000416010BD640000202DE9FF4F83B0814610
:1040600090461D460B224846049901F078F8052D2C
:1040700018D92F4611E038F802BB00240BE058464F
:1040800067F35F0007464FEA6B0B07F4803008B117
:104090001D484740641C102CF1D3B8F800000028DC
:1040A000E9D13D46072400BF05F00F0000F1300ABA
:1040B000BAF1390F03DD0AF1070000F0FF0A2046CC
:1040C000641E01A901F800A02D09002DECD17E206D
:1040D0000855002600E0761CA64203D219F8060017
:1040E0002028F8D100BF082C04D22046641C01A966
:1040F000085C00E020203146761C09F80100082EFB
:10410000F1D307B0BDE8F08F211001002DE9F05F79
:1041100004460D46022D02D36069A84202D84FF032
:1041200001098FE04FF0FF392078012804D00228E0
:104130003CD003287ED157E02F4607EB5707608914
:10414000B7FBF0F0216A00EB010A5146204601F06E
:104150001DF800B175E038467F1C6189B0FBF1F2B3
:1041600001FB120104F1300010F801806089B7FBF7
:10417000F0F0216A00EB010A5146204601F006F8F2
:1041800000B15EE06089B7FBF0F100FB117104F152
:104190003000405C48EA002805F0010010B14FEA09
:1041A000181001E0C8F30B0081464AE0B4F80AA0F9
:1041B0000AEBDA704010B5FBF0F0216A00EB010B5E
:1041C0005946204600F0E2FF00B13AE068006189FC
:1041D000B0FBF1F201FB120104F130000E1830784F
:1041E000717840EA01292CE0B4F80AA04FEAEA709D
:1041F0000AEB90708010B5FBF0F0216A00EB010B28
:104200005946204600F0C2FF00B11AE0A8006189BB
:10421000B0FBF1F201FB120104F130000E18F0784E
:104220000006B17840EA0140717840EA0120317817
:10423000084300E002E020F0704902E04FF001097D
:1042400000BF00BF4846BDE8F09F0000004870472F
:104250000000214670B502464FF0FF301568E5B109
:10426000116800E0491C0D78202D02D30D783A2DFD
:10427000F8D10D783A2D0FD1146814F8015BA5F12F
:1042800030030A2B07D28C4205D1022B03D21846E9
:104290004D1C2946156070BD002000BFFBE72DE9CD
:1042A000FF5F0446884691469A46267B27686568E4
:1042B000287803900020834602901020019000BFD0
:1042C00036BB6FB9A5684FF4007229462046636F6C
:1042D000984707462FB96FF0010004B0BDE8F09F82
:1042E0006D1C7F1E029850B100200290287810B1FA
:1042F0006FF00500F1E7FF200390287007E02878B1
:1043000003900398FF2802D10120029022E080262A
:104310004FEA4B0B0398304008B10BF1010B7610BC
:1043200018F8010B00900EE039F8021B594505D131
:104330002673276065609AF80000CEE70AF1010A4B
:104340000098401E009000980028EDD10198401E72
:10435000019000BF01980028B2D1801FBDE72DE970
:10436000F84306460F469046B56F5FB16B4642462E
:1043700039462868FFF72DFA0446201E0ED1009812
:10438000BDE8F8832A68926802EB08012868FFF705
:1043900066F808B94046F3E70020F1E700BFEFE711
:1043A0002DE9F74F82B004461746032F03DD0520A1
:1043B00005B0BDE8F08F6773A07B4FEAC009E07BD2
:1043C0004FEAC00A0021A182E18221838B46CDF809
:1043D00004B0002500262FE04FF0000828E0608B95
:1043E000A0B15846411C1FFA81FB618B88420DD158
:1043F0000198421C92B201462046019201F026F833
:1044000005460DB12846D3E74FF0010B204600F0DA
:10441000D7FB05460DB12846CAE73346424620463B
:10442000039900F0BDFC05460DB12846C0E7C8441D
:10443000E0694045D3D85644206AB042CCD82846DB
:10444000B6E72DE9FF4F83B00446059818B905205B
:1044500007B0BDE8F08F0598E066069820670498DD
:1044600060671098A0670020608300261BE04FF073
:10447000000A14E0002104F1240000EBC60040F81B
:104480002A1004F1340000EBC60040F82A1004F1B1
:10449000440000EBC60040F82A100AF1010ABAF104
:1044A000020FE7D3761C022EE1D3002605E000219F
:1044B00004F1540040F82610761C042EF7D34FF474
:1044C00000712046FDF7C2FF0546A0600DB903202C
:1044D000BEE7022229462046636F9847022801D092
:1044E0000220B5E76878297840EA01204FF6D871B4
:1044F000884201D00620ABE74FF0020900BF04223A
:1045000029462046636F9847042801D002209FE780
:104510006878297840EA01200290E878A97840EA92
:104520000127022F04D9FF210298B1EB202F01D0DF
:1045300006208DE7BF1E381D81440298C0B2C038E6
:104540001E2872D2DFE800F00FF4F3F272F1F0EF00
:1045500071EEEDEC71EBEAE971717171717171716C
:1045600071E8A68C715DB7F5007F01D904206FE773
:104570003A4629462046636F9847B84201D0022048
:1045800066E72879E97840EA0120E061A87869784F
:1045900040EA012020626879032801D0082057E70B
:1045A00000262BE006EB4600C01D15F800808EB9F2
:1045B000B8F1110F07D0B8F1220F04D0B8F1210FD4
:1045C00001D0082044E74FEA2810A07308F00F003C
:1045D000E07304E0B8F1110F01D0082038E706EBD2
:1045E0004600083015F80080B8F1030F01DD0820FF
:1045F0002EE704F1100000F80680761C032ED1D3BC
:10460000ECE0B7F5007F01D9042021E73A462946BE
:104610002046636F9847B84201D0022018E76878B7
:10462000297840EA01206083D8E0CDE0B7F5007F2B
:1046300001D904200CE73A4629462046636F984783
:10464000B84201D0022003E73A4629462046FEF749
:10465000C4F9C0B20190019808B10198F8E6BDE034
:10466000B7F5007F01D90420F2E63A4629462046F4
:10467000636F9847B84201D00220E9E63A462946DE
:104680002046FEF75DFBC0B20190019808B1019889
:10469000DEE6A3E0B7F5007F01D90420D8E63A466C
:1046A00029462046636F9847B84201D00220CFE6E2
:1046B000E06908B1206A08B90620C9E6287803280D
:1046C00001D00820C4E6002634E07000801C15F8F4
:1046D0000080B8F1000F04D0B8F1110F01D008200C
:1046E000B6E60EB1012000E00020804604F124006F
:1046F00050F8380028B104F1240000EBC8004068ED
:1047000008B90620A4E604F11000815D443050F899
:10471000210070B906209BE654E052E050E04EE0E4
:104720004CE04AE048E046E044E042E040E03EE061
:104730003CE0761C032EC8D3E07BA17B00FB01FB91
:10474000BBF1000F01D1062082E6402101EBCB171F
:10475000FF2F00D88F0039462046FDF777FE6066B0
:10476000606E08B9032073E60BF102008101204658
:10477000FDF76CFEA066A06E08B9032068E66560D0
:10478000002020602073C9F30800B0F100090BD0AD
:10479000C9F5007205EB09012046636F9847206058
:1047A00005EB0900401E6060002051E600BF00BF1D
:1047B00000BF00BF00BF00BF00BF00BF00BF00BF01
:1047C00000BF00BF082043E63A4600212046636F41
:1047D0009847B84201D002203AE600BF8FE60000B9
:1047E0002DE9F041ADF5865D05460122294605A873
:1047F000FEF730FF06461EB905A80DF58051886307
:104800004FF4E05000F0A6F9074641F23800684442
:104810004FF4E0533A461B4900900C30FFF711FE6D
:104820000446002C1ED10DF58050D0F8B400C0F520
:10483000E0530DF58050D0E9181213A0FDF7D0FC1D
:1048400000221C4941F244006844FFF7A9FD0446D8
:104850001CB919A0FDF7C4FC08E0214618A0FDF71B
:10486000BFFC03E021461EA0FDF7BAFC3846FFF767
:10487000CBFB0DF58051886BFEF7E1FD0DF5865DF4
:10488000BDE8F0815F430008496D61676520646998
:104890006D656E73696F6E733A202575206279209D
:1048A00025752E20257520627974657320757365D2
:1048B000642E0A00C15100080D4F4B20200A000051
:1048C0004661696C656420746F206465636F6D7008
:1048D000726573733A2072633D25640A000000001C
:1048E0004661696C656420746F20707265706172D6
:1048F000653A2072633D25640A00000010B5024647
:104900008C7ECB7E44EA03201378032B05D10C7DEB
:104910004B7D44EA032340EA034010BD0024FCF72A
:1049200079F93D48FCF7FAFA00214FF47840FCF79A
:10493000EBFA3A4803883A48028800210846FBF718
:10494000E3FF0620FCF70AF9FDF78AFBFCF7ECFA17
:10495000202034490860012008600220091D0860F9
:1049600031A0FDF73DFC3AA0FDF73AFC012247A13A
:104970004748FEF741FE474908700846007810B1E5
:1049800045A0FDF72DFC0620FCF7E8F84DA0FFF749
:1049900027FF4FF47A60FEF70DFA3BE00A2094FB04
:1049A000F0F100FB11400A282ED2DFE800F00509E3
:1049B0000D1115191D21252948A0FFF711FF23E02E
:1049C00049A0FFF70DFF1FE04AA0FFF709FF1BE01A
:1049D0004BA0FFF705FF17E04CA0FFF701FF13E026
:1049E0004DA0FFF7FDFE0FE04EA0FFF7F9FE0BE034
:1049F0004FA0FFF7F5FE07E050A0FFF7F1FE03E040
:104A000051A0FFF7EDFE00BF00BF641C4FF4FA5049
:104A1000FEF7D0F9C2E70000280000201A000020AD
:104A200018000020100C01400D0A202A2A2A2A2AE8
:104A30002A2A2A2A2A20CFD4CABE4A5047CEC4BC2A
:104A4000FE2A2A2A2A2A2A2A2A2A2A2A200D0A0063
:104A50000D0A20CAB5D1E9C7B0C7EBC8B7B1A35397
:104A600044BFA8B5C4C4BFC2BCCFC2BEDFD3D0CA86
:104A7000B5D1E9CAB9D3C3B5C44A5047CDBCC6AC59
:104A8000CEC4BCFE2C200D0A00000000303A00000D
:104A90006C000020140000200D0AC7EBB8F8BFAA74
:104AA000B7A2B0E5B2E5C8EBD2D1B8F1CABDBBAF91
:104AB000B3C9666174B8F1CABDB5C45344BFA8A1F7
:104AC000A30D0A00303A2F496D6167652F6261635B
:104AD0006B67726F756E642E6A706700303A2F696B
:104AE0006D67302E6A706700303A2F696D67312E1E
:104AF0006A706700303A2F696D67322E6A706700FE
:104B0000303A2F696D67332E6A706700303A2F692B
:104B10006D67342E6A706700303A2F696D67352EE5
:104B20006A706700303A2F696D67362E6A706700C9
:104B3000303A2F696D67372E6A706700303A2F69F7
:104B40006D67382E6A706700303A2F696D67392EAD
:104B50006A706700F0B50B30154D20F00701002496
:104B6000144A0FE003688B420BD38B4205D95E1ABF
:104B700043184768C3E9006700E04368136002C058
:104B800004E0021D10680028ECD12046002802D164
:104B9000286808B10020F0BD064A07481060074A9F
:104BA000121A22F00702C0E9002401202860D7E78A
:104BB00068000020640000206411002060310020A3
:104BC0002DE9F04F89B00446D4F86490A07BE17BD6
:104BD0004843089002200790A06E04904FF0000B0D
:104BE000D4E00898834501D2002003E00898ABEB9D
:104BF0000000401C0590059808B1012000E000204D
:104C0000804604F1240050F83800039004F1340089
:104C100050F83800019004F1440050F83800029038
:104C20002046DDE901230399FFF739FB0546002DF6
:104C300004DA6842C0B209B0BDE8F08F04F1140094
:104C4000059930F91160F5B129462046FDF70DFCB4
:104C50008246BAF1000F03DACAF10000C0B2EAE7F7
:104C6000681E012101FA00F50AEA050020B90120B9
:104C7000C0EB4500AAEB000A564432B204F114001E
:104C8000059920F8112004F110000599415C443089
:104C900050F8210000900098006870430012C9F895
:104CA0000000012703E0002049F827007F1C402F67
:104CB000F9D304F1240000EBC8004068039004F12C
:104CC000340000EBC8004068019004F1440000EBA0
:104CD000C80040680290012700BF2046DDE901239B
:104CE0000399FFF7DCFA054605B937E0002D02DA33
:104CF0006842C0B29FE728090690069828B1069836
:104D00000744402F01D3062095E705F00F00051E4C
:104D100020D029462046FDF7A8FB0646002E02DAE1
:104D20007042C0B287E7681E012101FA00F506EA69
:104D3000050018B90120C0EB4500361A1748C05DC0
:104D400006900699009850F82100704301120698C9
:104D500049F82010781C07464028BED300BF607B6E
:104D600003280AD1D9F80000C11700EB116109121C
:104D70008031CAB204990A7003E048460499FDF7ED
:104D8000BDFB0498403004900BF1010BDDE90710E6
:104D9000084458453FF625AF00204CE70A9B000821
:104DA0002DE9FF4F8DB004464FF480600C90A07B3E
:104DB000C700E07BC0000B900F983844E16988423F
:104DC00001D8384602E0E1690F98081A83460B992A
:104DD00010980844216A884201D80B9802E0216AA1
:104DE0001098081A0A90607B2BFA00FB617B0A98E6
:104DF000C8400A90BBF1000F01D00A9818B90020F2
:104E000011B0BDE8F08F617B0F98C8400F90617BB7
:104E10001098C84010900F9880B2ADF814000F9809
:104E20005844401E80B2ADF81600109880B2ADF81C
:104E300018000A9910980844401E80B2ADF81A0074
:104E4000607B03287DD0656E00266EE0D4F8688014
:104E500008EBC60007900B9810280BD170084FF490
:104E6000807101EBC0008044082E07D307984030C2
:104E7000079003E0F80000EBC60080444FF0000903
:104E800050E098F800008038099098F84000803889
:104E90000890102F09D1B9F1080F02D107983830C6
:104EA000079009F00100804401E008F1010807982B
:104EB00010F801AB079040F29B52089901FB02F0F9
:104EC000C11700EB91510AEBA121C1F30901994AE5
:104ED000515C05F8011B4FF4B0720999514340F23F
:104EE000DB23089A03FB0210C11700EB9151AAEBD8
:104EF000A121C1F309018F4A515C05F8011B40F261
:104F00001672099901FB02F0C11700EB91510AEBEF
:104F1000A121C1F30901874A515C2970691C0D4622
:104F200009F10109B945ACD3761C0B9886428DD3A3
:104F3000607B002853D0637B5A0094F80DE0012376
:104F400000E04DE003FA0EF17B1A03EB43030093FC
:104F5000606E002640E04FF000093AE006FB079E35
:104F60000EEB4E0E636E03EB0E05002301930293CE
:104F7000039304931DE04FF0000C13E015F8013B80
:104F8000DDF80CE07344039315F8013BDDF808E00D
:104F90007344029315F8013BDDF804E07344019378
:104FA0000CF1010C8C45E9D3009B1D44049B5B1C58
:104FB0000493049B8B42DED3039BD34000F8013B58
:104FC000029BD34000F8013B019BD34000F8013B1A
:104FD0008944B945C2D30E440B9B9E42BBD35BE0D0
:104FE000656EA16E0B9807FB001898F800008038DA
:104FF000099098F8400080380890002649E0A06E9B
:105000000790082E02D10798803007904FF00009D2
:105010003CE0079890F800A007984030079040F2D5
:105020009B52089901FB02F0C11700EB91510AEB6A
:10503000A121C1F309013F4A515C05F8011B4FF45E
:10504000B0720999514340F2DB23089A03FB021026
:10505000C11700EB9151AAEBA121C1F30901354A17
:10506000515C05F8011B40F21672099901FB02F030
:10507000C11700EB91510AEBA121C1F309012D4A9F
:10508000515C2970691C0D4609F10809B945C0D366
:1050900008360B988642B2D3607BC740BB4521D20D
:1050A000D4F864C061466046002316E000220CE09C
:1050B00010F801CB01F801CB10F801CB01F801CBBE
:1050C00010F801CB01F801CB521C5A45F0D3A7EBE5
:1050D0000B0C0CEB4C0C60445B1CDDF828C06345EA
:1050E000E4D300BF606E0246DDF828C00BFB0CF372
:1050F00000BF10F801CB0CF0F80C4FEA0C2110F8AF
:1051000001CB0CF0FC0C41EACC0110F801CB41EAD8
:10511000EC0122F8021BA3F1010CBCF10003E8D161
:1051200005AA2046616E0E9B984708B9012067E6E4
:10513000002065E6CA9B0008F0B503461C460D46F4
:10514000002000BF161EA2F1010207D014F8017B57
:1051500015F801CBA7EB0C06301EF3D0F0BD70B5EF
:1051600003460C4603E014F8015B03F8015B151ECF
:10517000A2F10102F7D170BD30B5034601E003F89A
:10518000011B141EA2F10102F9D130BD70B5044615
:105190000D460026E06AA84210D0204600F00AFA28
:1051A00006465EB9607801232A4604F13001FEF715
:1051B00087F810B14FF0FF350126E562304670BD2B
:1051C0002DE9F047054688461446208858B9A0883E
:1051D000697B884064214843296AB0FBF1FA514653
:1051E0001BA0FCF7FDFF4646B4F806C0B4F804A0C7
:1051F000ACEB0A0C0CF1010C1FFA8CF3B4F802C0F2
:10520000B4F800A0ACEB0A0C0CF1010C1FFA8CF204
:10521000A1885046FBF712FD2C20FBF76BFEA788F8
:105220000FE04FF0000905E03088FBF767FEB61C81
:1052300009F1010960882188401A401C4845F3D8CB
:105240007F1CE088B842ECD20120BDE8F087000066
:105250000D256C75252500002DE9F05F04460E46EE
:105260001746022E02D36069B04202D84FF00208FE
:10527000B3E02078012804D0022852D0032872D14C
:1052800072E0B14609EB59096089B9FBF0F0216A77
:1052900000EB010A51462046FFF778FF8046B8F13F
:1052A000000F00D098E0484609F101096189B0FB80
:1052B000F1F201FB120104F130000D1806F00100BB
:1052C00020B1F9B2287861F31F1000E03846287049
:1052D000012020716089B9FBF0F0216A00EB010A1E
:1052E00051462046FFF752FF8046B8F1000F00D02C
:1052F00072E06089B9FBF0F100FB119104F130001C
:105300000D1806F0010010B1C7F3071005E028786A
:1053100000F0F000C7F3032108432870012020713A
:105320005AE0B4F80AA00AEBDA704010B6FBF0F0CD
:10533000216A00EB010B59462046FFF727FF804604
:10534000B8F1000F00D047E070006189B0FBF1F2C6
:1053500001FB120104F130000D182F70380A68703B
:105360000120207138E034E0B4F80AA04FEAEA7076
:105370000AEB90708010B6FBF0F0216A00EB010B95
:1053800059462046FFF702FF8046B8F1000F00D0D3
:1053900022E0B0006189B0FBF1F201FB120104F1DF
:1053A00030000D18E8780006A97840EA01406978D5
:1053B00040EA01202978084300F0704007432F702D
:1053C000380A6870380CA870380EE8700120207117
:1053D00002E04FF0020800BF00BF4046BDE8F09F6A
:1053E0002DE9F04104460E46022E02D36069B04218
:1053F00001D8022727E0002721E031462046FEF7AA
:1054000085FE054605B91DE0012D01D1022719E0F1
:10541000681C08B9012715E0002231462046FFF735
:105420001BFF074607B10DE02069401C30B1206921
:10543000401C2061607940F0010060712E46606977
:10544000B042DAD800BF3846BDE8F0812DE9F04718
:1054500004468846666825680027B94614E05DB9A9
:10546000A6684FF4007231462046636F98470546A0
:105470001DB90220BDE8F087761C6D1E307840EA29
:10548000072087B209F10109B9F1020FE7D366607D
:105490002560002020734FF6D87038404FF6D07149
:1054A000884203D17807B0EB487F01D00620E1E7BE
:1054B0000021A182E18221830020DBE781760B0AB3
:1054C000C3760A0C02750B0E4375704730B5014662
:1054D00000200B2200BF431003EBC01411F8015B46
:1054E0006319D8B2531E1A1EF5D130BD70B50446EB
:1054F000204600F05FF80546002D59D1207803289A
:105500004FD1607901284CD16289002104F130002B
:10551000FFF732FE552184F82E12AA2184F82F12AB
:10552000522084F83000522131200155612132206F
:105530000155412133200155722184F8141284F859
:105540001512412184F81612612184F81712217C6A
:1055500084F81812208A010A84F819122069010CB3
:1055600084F81A122069010E84F81B12217B84F83A
:105570001C12A089010A84F81D12E068010C84F84D
:105580001E12E068010E84F81F12E069401CE06200
:105590006078012304F13001E26AFDF7F6FE002095
:1055A0006071607800221146FDF760FE00B10125B0
:1055B000284670BD2DE9F041044600272079F8B156
:1055C000E56A607801232A4604F13001FDF7DDFE2B
:1055D00008B1012714E000202071206A281AA1696F
:1055E00088420DD2E67809E0A0690544607801237D
:1055F0002A4604F13001FDF7C8FE761E022EF3D2D2
:105600003846BDE8F08170B505462C4684B1206867
:1056100070B12068007858B12068C088A18888429D
:1056200006D121684878FDF7A2FE00F0010008B11C
:10563000092070BD0020FCE7000000000000000011
:1056400000000000000000000000001818181818E2
:10565000180800081800000000000034242424006A
:1056600000000000000000000000000016247F245D
:1056700024247E2424000000000000083E684868BE
:105680001C1612127C10100000000061D2967408E3
:1056900010162949C6000000000000003C64643870
:1056A000724ACE467F00000000000018181818004B
:1056B0000000000000000000000000040818103086
:1056C0003030301010180C04000000201008080CB6
:1056D0000404040C08181020000000080A341C6A96
:1056E0000800000000000000000000000000181882
:1056F000187F1818180000000000000000000000CB
:105700000000001818083000000000000000000031
:10571000003C00000000000000000000000000004D
:1057200000000018180000000000000206040C0829
:105730000810102020400000000000003C66424796
:105740005B7342663C0000000000000018784808C7
:10575000080808087E000000000000003C4606061D
:10576000040810207E000000000000007C060604F3
:105770003C0202067C000000000000000C1C142407
:105780006444FF0404000000000000007E606060CC
:105790007E0202067C000000000000001E3060480F
:1057A000764242623C000000000000007E020604D7
:1057B0000C08181030000000000000003C62423667
:1057C0001C6642423C000000000000003C66424271
:1057D000661A02047800000000000000000018189B
:1057E0000000001818000000000000000000181859
:1057F0000000001818083000000000000000041825
:105800003060100C060000000000000000000000E6
:105810007E007E0000000000000000000000301844
:1058200004060C1020000000000000301C060606D4
:1058300018100010100000000000001C224141DD83
:10584000B5A5A5AF94C0403C00000000181C34244E
:1058500026627E43C1000000000000007C464246F4
:105860007C4242427C000000000000001E204040BC
:10587000404040603E000000000000007C46424383
:105880004343424678000000000000007E606060F4
:105890007E6060607E000000000000007E6060604E
:1058A0007E60606060000000000000001E604040FC
:1058B000CE4242623E0000000000000042424242EE
:1058C0007E42424242000000000000007E1818188C
:1058D000181818187E000000000000007C04040462
:1058E00004040444780000000000000042444850D2
:1058F00070584C444200000000000000202020208E
:10590000202020203E000000000000006266675F4B
:105910005B5BC1C1C1000000000000006262725206
:105920005A4A4E4646000000000000003C6243C355
:10593000C3C343623C000000000000007C464242BA
:105940004678404040000000000000003C6243C335
:10595000C3C343623C180F00000000007C6662660F
:105960007C6C646662000000000000003E604060E5
:105970001C0602027C000000000000007F181818BE
:105980001818181818000000000000004242424297
:10599000424242623C00000000000000C1434262FB
:1059A0002624341C1800000000000000C1C1414939
:1059B0005B5B7666660000000000000043663418FA
:1059C000181C2466C300000000000000C1426634B9
:1059D0001C18181818000000000000007E02040CBB
:1059E000181020607E0000000000001C1010101035
:1059F000101010101010101C00000040202010107B
:105A000008080C04060200000000003C0C0C0C0C02
:105A10000C0C0C0C0C0C0C3C00000000181C24623C
:105A20000000000000000000000000000000000076
:105A300000000000000000FF000000201000000037
:105A400000000000000000000000000000003C0614
:105A5000023E42467A0000000000004040405C6286
:105A6000424242427C0000000000000000001E2074
:105A7000604060203E0000000000000202023E6222
:105A8000424242663A0000000000000000003C6212
:105A9000427E40603E0000000000000F1810107EA3
:105AA00010101010100000000000000000003F6601
:105AB000426658403E43423C0000004040405C6229
:105AC00042424242420000000000001818007808DC
:105AD000080808087E000000000000040C007C0498
